:1000000000000420750300005D0300005F03000092
:1000100061030000630300006503000000000000AE
:100020000000000000000000000000006703000066
:1000300069030000000000006B0300006D03000076
:100040006F0300006F0300006F030000B1070000A2
:100050006F0300006F0300006F0300006F030000D8
:100060006F0300006F0300006F0300006F030000C8
:100070006F0300006F0300006F0300006F030000B8
:100080006F0300006F0300006F0300006F030000A8
:100090006F0300006F0300006F0300006F03000098
:1000A0006F0300006F0300006F0300006F03000088
:1000B0006F0300006F03000000000000000000005C
:1000C0006F0300006F0300006F0300006F03000068
:1000D0006F0300006F0300006F0300006F03000058
:1000E0006F0300006F0300006F03000000000000BA
:1000F000000000006F030000000000006F0300001C
:1001000000000000000000000000000000000000EF
:1001100000000000000000000000000000000000DF
:1001200000000000000000000000000000000000CF
:1001300000000000000000000000000000000000BF
:1001400000000000000000000000000000000000AF
:10015000000000000000000000000000000000009F
:10016000000000000000000000000000000000008F
:10017000000000000000000000000000000000007F
:10018000000000000000000000000000000000006F
:10019000000000000000000000000000000000005F
:1001A000000000000000000000000000000000004F
:1001B000000000000000000000000000000000003F
:1001C000000000000000000000000000000000002F
:1001D000000000000000000000000000000000001F
:1001E000000000000000000000000000000000000F
:1001F00000000000000000000000000000000000FF
:10020000354936480A1A02D0072291438D463449AF
:1002100034480A1A06D00722914381F30988022242
:1002200082F3148830483149314A00F044F83148AB
:100230003149324A00F03FF831483249324A00F041
:100240003AF832483249334A00F035F832483349F7
:10025000334A00F030F833483349344A00F02BF881
:1002600033483449344A00F026F8344834490022EF
:1002700000F02CF833483449002200F027F83348C6
:100280003349091A082902DB002202604160314A21
:1002900090471F481F49884205D00268043003B4C4
:1002A000904703BCF7E700208646EC46002000217B
:1002B000294A9047FEE7884207D0521A05D00378B2
:1002C00001300B700131013AF9D17047884202D0F8
:1002D00002700130FAE770470000042000E00320BC
:1002E00000000420000004202C1400000000002066
:1002F00008000020D0030000D00300006C130000B1
:100300002C14000000000020000000206C130000EE
:100310006C1300006C1300006C1300006C130000E1
:100320006C1300006C1300006C1300002C14000010
:1003300034140000080000200800002008000020FD
:100340005C0000205C0000205C0000205C000020BD
:100350005C2000209D03000081080000FEE7FEE70E
:10036000FEE7FEE7FEE7FEE7FEE7FEE7FEE7FEE765
:1003700000F002B8FFF7FCBF0F484FF007018843B9
:1003800085460E4880470E48016841F470010160BF
:10039000BFF34F8FBFF36F8FFFF732BF09480A4992
:1003A0000A4A884207D0521A05D0037801300B70F0
:1003B0000131013AF9D170470000042049090000D9
:1003C00088ED00E06C130000000000200000002019
:1003D00000F0A6BF1FB50021039001AA44F201005E
:1003E000CDE9011100F004F805B05DF804FB000050
:1003F00072B6094BD3F8F020D20700D500BEBFF388
:100400004F8FD968054A01F4E0610A43DA60BFF30F
:100410004F8F00BFFDE700BF00ED00E00400FA05CC
:100420007FB503788DF804304368029383688DF8B4
:100430000C30C36804930369064A8DF81430064BE8
:1004400001A853F8213052F82110984707B05DF801
:1004500004FB00BF0800002018000020F0B505468E
:10046000174615F804CB124A42F82C70114A42F88C
:100470002C30114B0C460FCB85B06E4686E80F0032
:100480002368009323798DF8053063798DF8063061
:10049000A3680293002FA389084AADF80C3008BF67
:1004A0003A4663463146284600F02AF805B0F0BDCA
:1004B00018000020080000206C1300002104000038
:1004C0001F2886BF054A00F01F004FF0A0420123FD
:1004D00003FA00F0C2F80C05704700BF000300509B
:1004E0001F2886BF054A00F01F004FF0A0420123DD
:1004F00003FA00F0C2F80805704700BF000300507F
:100500002DE9F8430579614C80462420684326187C
:10051000377F002F40F0B880D8F800702250736009
:100520000B7B0878012B00F29880FFF7C9FF0B784E
:100530001F2B86BF03F01F03554A4FF0A04203F55F
:10054000E073012042F823004E78FF2E00F08880EF
:100550003046FFF7B5FF1F2E8BBF06F01F03334653
:100560004B4A4FF0A04203F5E073032042F823000A
:100570008B78FF2B77D01F2B8BBF03F01F021A46FF
:1005800043484FF0A04002F5E0724FF0040C40F8F1
:1005900022C09946242202FB054282F82030C87806
:1005A000D077FF2816D00B79002B5FD0FFF788FF9C
:1005B000CB781F2B86BF03F01F03354A4FF0A042B4
:1005C00003F5E073032042F82300242303FB0543D3
:1005D0000A799A770B78C7F808358B68C7F80C65E5
:1005E000C7F81095C7F824354B7B0A7B003B18BF32
:1005F0000123022A3DD0032A3ED0012A01D143F033
:100600000203C7F854358B79C7F8C0350723C7F8FC
:10061000003524236B43E358B3B1D8F800304A794E
:1006200043F3073052010028C3F30733D2B226DB6D
:1006300018490E1886F800230122400903F01F0311
:1006400002FA03F341F82030242303FB0544002081
:10065000012360772377BDE8F883FFF741FF66E762
:100660004FF0FF3684E74FF0FF3993E7FFF738FF8D
:100670009EE743F00403C4E743F00603C1E70649DD
:1006800003F00F03CA54DFE70820E4E72800002046
:100690000003005000E100E014ED00E02DE9F3411B
:1006A0000779424E24237B431446F2180D46517FAE
:1006B0008046002978D1F35823B114F0140F04BFF9
:1006C0000123537795E80F004FF0240C0CFB076CC7
:1006D0000CF10C0E8EE80F009CF81F00FF2804D0D0
:1006E0009CF81E30C3B1FFF7FBFE296821B101F071
:1006F0006043B3F1005F06D1AA6882B102F06043A3
:10070000B3F1005F0BD0242303FB0766002373774C
:10071000102002B0BDE8F081FFF7D2FEE5E7D8F87F
:1007200000306868C3F84415C3F84805E968C3F8A1
:1007300034250022C3F83815C3F81821D3F818213E
:100740000192019A14F0010218BF0122C3F850254A
:1007500014F0020218BF0122C3F8402522075CBF33
:1007600001221A6124227A43B25892B9D3F818218F
:10077000002AFBD0242303FB0766F07FFF2803D069
:10078000B47F1CB1FFF79CFE0020C2E7FFF7A8FE74
:10079000FAE714F004004FF0400202D0C3F8082337
:1007A000F2E7C3F80423B4E71120B2E728000020E1
:1007B000114B07B5D3F81821DAB110490022C3F85C
:1007C0001821C87FD3F818310193FF28019B03D06B
:1007D0008B7F5BB1FFF774FE00234B770B72D1E97F
:1007E0000031074803B05DF804EB1847FFF778FEC7
:1007F000F2E703B05DF804FB003000402800002061
:100800003000002008B5084B084801221A70084B38
:10081000197800F003FA074B197821B1BDE80840B8
:10082000054800F0FBB908BD4D0000207C13000016
:10083000000000204C000020951300001FB50C4B59
:100840000FCB6C4684E80F000A4B00934FF0007307
:10085000029301238DF80C30074A084800232146F3
:10086000FFF7FCFD08B1FFF7B5FD04B010BD00BFF8
:10087000C41300001A1D1E1F05080000E813000025
:10088000F0B54FF0A043032285B0C3F834271548D4
:10089000154E00F0E5F9FFF7D1FF144800F0BEF95E
:1008A0004FF00007124B134C00931348377001238D
:1008B00000226946CDE9013627700393FFF7EEFE6B
:1008C00008B1FFF787FD23784BB10C4D0A2445F0A2
:1008D00001054FF47A40A847013CFAD1E2E720BF76
:1008E000F1E700BFA31300004C000020B713000085
:1008F000000000204D000020EC130000E013000079
:100900004FF08053D3F83001A0F10803584258410A
:10091000704700004FF08053D3F83021082A06D1E9
:10092000D3F83431052B02D8024AD05C704700203E
:10093000704700BFFE130000024AD2F80034002BBB
:10094000FBD0704700E0014010B5FFF7D9FF40B180
:100950004FF080430022C3F80C21C3F81021C3F8E4
:100960003825FFF7CDFF002846D04FF08052654B69
:10097000D2F80414C3F82015D2F80814C3F82415CB
:10098000D2F80C14C3F82815D2F81014C3F82C159B
:10099000D2F81414C3F83015D2F81814C3F834156B
:1009A000D2F81C14C3F84015D2F82014C3F844152B
:1009B000D2F82414C3F84815D2F82814C3F84C15FB
:1009C000D2F82C14C3F85015D2F83014C3F85415CB
:1009D000D2F83414C3F86015D2F83814C3F864158B
:1009E000D2F83C14C3F86815D2F84014C3F86C155B
:1009F000D2F84424C3F87025FFF78CFF18B1424B9E
:100A0000424AC3F88C26FFF785FF18B1404BFB2202
:100A1000C3F81825FFF77EFF70B14FF080414FF00B
:100A20008053D1F8E42ED3F8583222F00F0203F0AD
:100A30000F031343C1F8E43EFFF76CFF20B1354BC1
:100A40004FF40072C3F84026FFF75AFF48B14FF049
:100A50008043D3F80024D20744BF6FF00102C3F8EB
:100A600000242D4AD2F8883043F47003C2F888304D
:100A7000BFF34F8FBFF36F8F4FF08053D3F8302108
:100A8000082A0ED1D3F83431052B02D8234AD35C7F
:100A90003BB14FF01023D3F808224FF08043C3F846
:100AA00058254FF01023D3F80022002A03DBD3F897
:100AB0000432002B22DA1A4901234FF01020C1F82A
:100AC00004351224FFF738FFC0F80042FFF734FF67
:100AD000C0F80442FFF730FF0023C1F80435FFF7E8
:100AE0002BFFBFF34F8F0C490E4BCA6802F4E06234
:100AF0001343CB60BFF34F8F00BFFDE70A4B0B4A98
:100B00001A6010BD00C00040005000404881030042
:100B100000F000400090024000ED00E0F8130000FB
:100B200000E001400400FA05040000200090D0031A
:100B300038B585680446084645B122686168531C8B
:100B40008B4208BF00208A420AD2A854E268236878
:100B50002AB161688B4202D2214690472368013353
:100B6000236038BD70B54D1E22D413681446C6B23A
:100B70000EE0D0542368E2682AB16168994202D934
:100B8000214690472368013D01336A1C23600FD042
:100B9000A26872B1616803F1010C8C4514BF304644
:100BA00000209942E5D8013D63466A1C2360EFD1DD
:100BB00070BD3046DFE700BFC3062BD410F4007FC2
:100BC00070B514BF302620264D1E22D4136814465B
:100BD000F6B20EE0D0542368E2682AB16168994207
:100BE00002D9214690472368013D01336A1C2360E6
:100BF0000FD0A2687AB1616803F1010C8C4514BF73
:100C0000304600209942E5D8013D63466A1C2360C6
:100C1000EFD170BD70473046DEE700BF0FB410B5AE
:100C200088B00AAB0D4A53F8041B03936FF00040E1
:100C30000024CDE905040191079200F06DFB039AB1
:100C4000019904A800F06AF8019000F067FB019890
:100C500008B0BDE8104004B0704700BFD1030000E9
:100C600010B582B0441E00F057FB03E0FFF7B0FB65
:100C7000431C08D014F8010F00210028F6D10146CA
:100C80000A20FFF7A5FB019000F048FB019802B095
:100C900010BD00BF027862B169B100EB010C0346E0
:100CA00001E0634503D013F8011F0029F9D1181A98
:100CB0007047104670470846704700BF00F10101B9
:100CC00010F0030F11D010F8012B002A23D010F0E0
:100CD000030F0AD010F8012B002A1CD010F0030FCC
:100CE00003D010F8012B002A15D02DE970004FF029
:100CF00001324FF0803350F8044BA4EB020525EA93
:100D000004051D4000D1F6E7A0F1040070BC10F806
:100D1000012B002AFBD1A0EB010070472DE9F04F19
:100D200000230C46036089B014F8011B03920746A8
:100D3000002900F0E582DFF8DC9507E03846FFF790
:100D4000F7FE14F8011B002900F058812529F5D180
:100D50002246002612F8010B302800F29E801F2840
:100D60000ED9A0F12003102B0AD8DFE803F0AC095C
:100D700009A8090909A4090909A0099C09098D0004
:100D80002A2840F0FC80039B10781D680433002D56
:100D90000393BCBF6D4246F01006A21C2E2800F043
:100DA00004810021742800F092807A2800F08F805E
:100DB0006C2800F032814C2800F03581682800F062
:100DC000BE811446002800F08880A0F12503DAB225
:100DD000532A00F22B81532B00F22881DFE813F015
:100DE000EB01260126012601260126012601260106
:100DF00026012601260126012601260126012601BB
:100E000026012601260126012601260126012601AA
:100E1000260126012601260126012601260126019A
:100E2000260126012601260126012601260126018A
:100E3000260126012601260126012601260126017A
:100E4000260126012601820026012601260126010F
:100E5000260126012601260126012601D601F600DB
:100E60002601260126012601F6002601260126017B
:100E7000260150024802130226012601ED01260137
:100E8000CB0126012601840046F400761446224652
:100E900012F8010B30287FF662AF5E286FD146F45E
:100EA00080561446F3E746F010061446EFE746F086
:100EB00020061446EBE746F400461446E7E746F002
:100EC00080061446E3E746F040061446DFE7144682
:100ED00014F8010B00287FF478AF4FF0FF3009B011
:100EE000BDE8F08F46F4005616F0800A06D043F2B3
:100EF000780A43F25803782818BF9A4616F480738C
:100F000007BF06F48042B04626F4007806F480421B
:100F1000002A61D1039A18F0040F02F10406039627
:100F2000126800F0A08092B2002B65D028F40078FF
:100F30005838202800F29D80DFE810F073019B00F4
:100F40009B009B009B009B009B009B009B009B00C9
:100F50009B009B00D4009B009B009B009B00D40047
:100F60009B009B009B009B009B00090173019B0061
:100F70009B009B009B00D4009B009B007301A0F191
:100F80003004E3B2092B4FF000053FF607AF12F82B
:100F9000010B05EB850504EB4505A0F13004E3B238
:100FA000092BF4D92E287FF4FCAE10782A2840F0C3
:100FB0007781039B50781968941C043300290393AC
:100FC0002246FFF6EFAE46F48076EBE646F4804824
:100FD00006F480734FF0000A039A18F0040F02F130
:100FE00004060396126830D012B2002A31DA524257
:100FF0004FF02D0A002B99D1012199E73868BB6881
:10100000002B3FF46CAF7A6882427FF668AF002213
:101010001A54386809B0BDE8F08F144646F001064E
:1010200014F8010BCEE646F001061446B54BD3F892
:101030000080B8F1000F3FF484AE009103A9019144
:101040002B4632463946C0477BE618F0080FCCD015
:10105000D2B218F0200F40F03E8118F0400F18BFB8
:101060004FF0200A60E718F0080F3FF45DAFD2B2EE
:101070005AE74FF0FF36002321EAE17BA5EB0B0591
:10108000BAF1FF0FA5EB030540F20481CAF3072173
:101090003846023DFFF74CFD5FFA8AF13846FFF70C
:1010A00047FD40463A462946FFF786FD3A465946EF
:1010B0003020FFF757FD731C0AD001360DF1140ADA
:1010C000564416F8011D3846FFF732FDB245F8D1F7
:1010D00018F0100F3FF435AE29463A462020FFF7AE
:1010E00041FD2EE61046002A00F0068108F4004C6F
:1010F000624600238C464FF02C0E114603F003028B
:1011000009B1032A14D01E46A9FB0032D20802EB13
:10111000820306F1200BA0EB4303EB443033092894
:101120000BF80C3C06F1010340F2D2801046E5E7D3
:1011300003F120026A445E1C02F80CECE4E710782C
:10114000682800F0D480541C46F004063AE61046A5
:10115000002A00F0D1800DF1140C002302F00702E8
:101160003032C0080CF8012B1E460246013300281D
:10117000F4D1C91A80E716F4807300F0AF8026F42A
:10118000007806F480424FF0000AC1E6039B013D5F
:10119000191D93F8008003913A4629463046FFF71F
:1011A0000BFD41463846FFF7C3FCB3461BF0100F5A
:1011B0003FF4C7AD90E72521C0E5039B524A181DB7
:1011C0000390D3F800A0BAF1000F08BF9246F205D1
:1011D000D04626F4007B504640F18580FFF75AFD4B
:1011E0000646AD1B3A4629465846FFF7E5FC002E59
:1011F000DCD018F8011B3846FFF79AFCAAEB08036D
:10120000F342F6D1D2E7039B1A1D039216F0800F2A
:101210001A6846F480780CBF4FF0000A4FF0230A9A
:1012200008211046002A67D008F4005C634605AA2E
:101230008C460026A346194609E0344B000913F8F2
:101240000E3002F8013B06F101030DD01E4600F0FE
:101250000F0E0029F1D12E4C000914F80E3002F8BF
:10126000013B06F10103F1D161465C46C91A03E76F
:1012700016F0800F0CBF4FF0000A4FF0300A3DE629
:10128000039B3A68191D03911B6831074CBF1A7004
:101290001A6056E5BAF1000F3FF403AF013DFBE6DB
:1012A000A0F13004E3B2092B02F101024FF000017A
:1012B0003FF689AE12F8010B01EB810104EB41010D
:1012C000A0F13004E3B2092BF4D946F4807669E545
:1012D0006146C91AD0E64FF02B0A25E606F4804293
:1012E000B0469A4614E6FFF7E9FC064679E75078DF
:1012F00046F00806941C65E513464FF0FF36BBE642
:1013000008467CE65000002024140000141400005D
:1013100004140000CDCCCCCC704700BF704700BF98
:1013200010B501460446172000F00AF800280CBF4B
:1013300020464FF0FF3010BD704700BF704700BF20
:1013400070B504460D46074EFFF7F6FF064A3560B6
:1013500044F0800414601368002BFCD1FFF7EEFF0B
:0C136000306870BD5800002054000020D0
:10136C00FFFFFFFF0006FF00000000400000000030
:10137C005472616E7366657220636F6D706C657408
:10138C006564203A2025640A0052656365697665B8
:10139C00643A2025640A00424C494E4B4147452093
:1013AC004445204C454420574F5700434F4E464927
:1013BC0047205350492E0000FFFFFFFF06FF00009F
:1013CC0000000040000000000000000000000000D1
:1013DC00000000000338FDD870470000000000003A
:1013EC000030004000000000010000000000000080
:1013FC000101010000000000303132333435363742
:10140C00383961626364656630313233343536376E
:10141C003839414243444546286E756C6C290000AE
:08142C00030000000090D00352
:040000030000037581
:00000001FF
