:1000000000000420750300005D0300005F03000092
:1000100061030000630300006503000000000000AE
:100020000000000000000000000000006703000066
:1000300069030000000000006B0300006D03000076
:100040006F0300006F0300006F030000210A00002F
:100050006F0300006F0300006F0300006F030000D8
:100060006F0300006F0300006F0300006F030000C8
:100070006F0300006F0300006F0300006F030000B8
:100080006F0300006F0300006F0300006F030000A8
:100090006F0300006F0300006F0300006F03000098
:1000A0006F0300006F0300006F0300006F03000088
:1000B0006F0300006F03000000000000000000005C
:1000C0006F0300006F0300006F0300006F03000068
:1000D0006F0300006F0300006F0300006F03000058
:1000E0006F0300006F0300006F03000000000000BA
:1000F000000000006F030000000000006F0300001C
:1001000000000000000000000000000000000000EF
:1001100000000000000000000000000000000000DF
:1001200000000000000000000000000000000000CF
:1001300000000000000000000000000000000000BF
:1001400000000000000000000000000000000000AF
:10015000000000000000000000000000000000009F
:10016000000000000000000000000000000000008F
:10017000000000000000000000000000000000007F
:10018000000000000000000000000000000000006F
:10019000000000000000000000000000000000005F
:1001A000000000000000000000000000000000004F
:1001B000000000000000000000000000000000003F
:1001C000000000000000000000000000000000002F
:1001D000000000000000000000000000000000001F
:1001E000000000000000000000000000000000000F
:1001F00000000000000000000000000000000000FF
:10020000354936480A1A02D0072291438D463449AF
:1002100034480A1A06D00722914381F30988022242
:1002200082F3148830483149314A00F044F83148AB
:100230003149324A00F03FF831483249324A00F041
:100240003AF832483249334A00F035F832483349F7
:10025000334A00F030F833483349344A00F02BF881
:1002600033483449344A00F026F8344834490022EF
:1002700000F02CF833483449002200F027F83348C6
:100280003349091A082902DB002202604160314A21
:1002900090471F481F49884205D00268043003B4C4
:1002A000904703BCF7E700208646EC46002000217B
:1002B000294A9047FEE7884207D0521A05D00378B2
:1002C00001300B700131013AF9D17047884202D0F8
:1002D00002700130FAE770470000042000E00320BC
:1002E0000000042000000420BC17000000000020D3
:1002F00004000020D0030000D0030000101700000D
:10030000BC170000000000200000002010170000B3
:100310001017000010170000101700001017000041
:10032000101700001017000010170000BC17000085
:10033000C01700000400002004000020040000207A
:1003400058000020580000205800002058000020CD
:10035000582000209D030000390C0000FEE7FEE756
:10036000FEE7FEE7FEE7FEE7FEE7FEE7FEE7FEE765
:1003700000F002B8FFF7FCBF0F484FF007018843B9
:1003800085460E4880470E48016841F470010160BF
:10039000BFF34F8FBFF36F8FFFF732BF09480A4992
:1003A0000A4A884207D0521A05D0037801300B70F0
:1003B0000131013AF9D1704700000420210D0000FD
:1003C00088ED00E010170000000000200000002071
:1003D00001F078B91FB50021039001AA44F2010091
:1003E000CDE9011100F004F805B05DF804FB000050
:1003F00072B6094BD3F8F020D20700D500BEBFF388
:100400004F8FD968054A01F4E0610A43DA60BFF30F
:100410004F8F00BFFDE700BF00ED00E00400FA05CC
:100420001FB503788DF800308388ADF804308368F9
:100430008DF80630C3688DF807300369029343696D
:10044000054A0393054B684653F8213052F82110B2
:10045000984705B05DF804FB040000200C00002064
:10046000024B4FF4807043F001031847101700004F
:100470001F2886BF054A00F01F004FF0A04201234D
:1004800003FA00F0C2F80805704700BF00030050EF
:100490002DE9F047154690F80080394A42F8285077
:1004A000384A42F828304B7B06460C46A3B308680E
:1004B000DFF8D8904FF0A04100F5E07340F20C62F5
:1004C00041F82320636803F5E073002741F82320F7
:1004D000FFF7CEFF6068FFF7CBFF236803F5E073FB
:1004E00040F20D6241F82320636803F5E0734FF09A
:1004F000010A41F82320FFF7B3FF63681F2B8ABF6F
:100500004A464FF0A04203F01F03D2F8102522FA0A
:1005100003F3DB070BD507BB002D1B4A434608BF7F
:100520002A462146301DBDE8F04700F069B823682F
:100530001F2B86BF03F01F034A464FF0A0420AFA62
:1005400003F3C2F80C35FFF78BFF01372068FFF784
:100550008FFFFFF785FF092FCFD163681F2B86BF61
:100560000A4903F01F034FF0A041012202FA03F3EE
:10057000C1F80C35FFF774FF6068FFF779FFCBE730
:100580000C000020040000202104000000030050A3
:100590000023435082B043580193019B02B070473F
:1005A0000B7B032B2AD8DFE803F022261A028B6884
:1005B0005A0304D5D0F84C350A699A4207D18B68A2
:1005C0005B031BD4D0F84C354A699A4216D00023FD
:1005D0000622C0F80035C0F8002518467047D0F84C
:1005E0004C350A699A42F2D1D0F83C35ECE7D0F8A4
:1005F0004C350A69E9E7D0F83C35FAE70120704745
:10060000F0B50679314D4FF0340C0CFB06FC05EBD0
:100610000C0494F82D70002F55D1A76084F8307029
:1006200084F82F700F6863601F2F4B7B84F8323083
:100630008CBF07F01F033B4603F5E07388BF244CD3
:1006400045F80C2098BF4FF0A04440F20C6E44F8DF
:1006500023E04C681F2C8CBF04F01F03234603F5D6
:10066000E0738CBFDFF868C04FF0A04C4CF823E07B
:1006700003688868C3F80875C3F80C45C3F82405F7
:10068000A2B10A7B43F3073052010028C3F30733BA
:10069000D2B213DB0F490C1884F800230122400961
:1006A00003F01F0302FA03F341F82030342303FB65
:1006B0000655012385F82D300020F0BD064903F0D2
:1006C0000F03CA54F2E70820F7E700BF1400002028
:1006D0000003005000E100E014ED00E0036802793F
:1006E0000621C3F80015044B342101FB023302221A
:1006F00083F82D20704700BF140000202DE9F84337
:10070000DFF8C88290F804900468342606FB098656
:10071000002386F82E30CB6803F06043B3F1005F0E
:100720000D46174603D010263046BDE8F883A64B89
:10073000C4F8083396F82F3023B1B368C4F80433F3
:100740001126F1E712F0140F0CBF0123002386F8E5
:100750002F308E46BEE80F0006F10C0CACE80F00FF
:10076000DEF80030CCF80030C7F3001386F83030E4
:1007700037626B78C4F8883520464FF48271FFF7F2
:1007800007FF4FF49271FFF703FF4FF4B071FFF7CB
:10079000FFFE4FF4A471FFF7FBFE17F0010318BF33
:1007A0000123C4F8503517F0020318BF0123C4F821
:1007B00040352B78032B00F2B580DFE803F084A0EE
:1007C00069022B6903F06043B3F1005FABD14FF4D2
:1007D0008073C4F80032EA686B68C4F844254FF4AB
:1007E000A871C4F84835FFF7D3FE01232362A36044
:1007F000D4F85031002BFBD04FF4A8712046FFF7FE
:10080000C7FEAB682A69C4F84425C4F848353423C8
:1008100003FB09834FF480229A60082300263A07DD
:1008200004D42A78032A1CBF0122E250342303FB9C
:1008300009F308EB030258F80330002B75D10125AA
:10084000D4F84821D4F80431002B40F08980003AD4
:1008500018BF0122D4F82431002B00F088804FF417
:1008600092712046FFF794FED4F86011D4F800325C
:1008700009B1980504D4256265610029E0D0002201
:10088000D90574D54FF4A4712046FFF781FED7E750
:100890006B68EA68C4F84425C4F848352B6903F04E
:1008A0006042B2F1005F7FF43EAFAA68C4F834350D
:1008B0004FF48453C4F83825C4F80032342303FBC2
:1008C0000983022212E06B68EA68C4F8442517F035
:1008D000200FC4F848354FF034030BD04FF480722A
:1008E000C4F8002203FB09834FF480229A6001239D
:1008F000236292E74FF40072C4F80022DFE76B68CE
:10090000EA68C4F83425C4F838354FF48053C4F885
:100910000032342303FB098302229A6001232362FD
:1009200000237BE70823072679E77B0744BF0023E2
:1009300093607D0606D4342303FB09839A6842F052
:1009400002029A60342303FB0988D8F8083043F484
:100950000073C8F80830D8F80830C4F80433E3E668
:100960004FF482712046FFF713FE012272E7002A3E
:100970003FF466AF3421D4F8C434C4F8C43401FB66
:100980000982002082F82F0093B113F0010F14BFE9
:100990004FF40246032648F2012213F0020F18BF5B
:1009A000164613F0040F48F2022318BF1E46BBE69A
:1009B0007B063FF5B9AE09FB01812046FFF7F0FD4C
:1009C000002808BF0326AFE602029C0114000020A5
:1009D00010B586B00024CDE902349DF820308DF8A2
:1009E0000510A342CDE9042401A914BF2022224608
:1009F0008DF80440FFF782FE06B010BD10B586B03A
:100A0000012402930023CDE903328DF805101A4624
:100A100001A98DF804400593FFF770FE06B010BDE4
:100A2000F0B5594D594CD5F8243187B0FBB14FF48E
:100A300092712846FFF7ACFDD5F80431BBB9A36825
:100A4000C5F808330223A360A368C5F80433D5F8BA
:100A500060311BB1D5F800329F0503D44A4B012207
:100A60001A625A61012384F82E3007B0F0BDD5F820
:100A70000431002B50D044484FF48271FFF788FDB9
:100A8000236A5E0609D494F82E3033B93F49FFF744
:100A900087FD80F0010084F82E00236A5D0720D4D2
:100AA0003B4E0FCE01AD0FC5336837482B604FF476
:100AB000B071FFF76DFD4FF4AE71FFF769FD94F86B
:100AC000303013B194F82E305BB12F4B0022C3F8B5
:100AD0000022A2602F4AC3F808232F4B0822C3F834
:100AE0008021294AD2F8C434C2F8C43498073DD5CD
:100AF00001238DF8003094F830300BB984F82F3092
:100B0000236A5B0703D594F82E30002BADD0D4E9CF
:100B1000003168469847A8E71B484FF4A471FFF7D7
:100B200037FD237B83B91A4F0FCF01AE0FC63B6849
:100B3000336094F83030002BD3D1C5F80032A36075
:100B4000144BC5F80833C8E74FF40073C5F80032FA
:100B500040F20223A36003F1CE73C5F80833A36803
:100B6000C5F804330123AB602B627EE7590701D53A
:100B70000223BEE7DA0701D50323BAE794F82E3043
:100B8000002BB6D00423B4E700300040140000204E
:100B90002000002002029C0100E100E0037813B96C
:100BA000014B01221A7070474A0000201FB50C4B00
:100BB0000C481A889B788DF80E300023ADF80C2075
:100BC000009303AA03231821FFF702FF08B1FFF7E0
:100BD00001FC054A1378002BFCD005B05DF804FB3E
:100BE0005E1700007C1700004A0000201FB54FF080
:100BF000A0430C22C3F86827C3F86C271A221B23D2
:100C0000CDE900234FF0CC710223CDE90213074A4E
:100C1000074800236946FFF73BFC08B1FFF7DAFB02
:100C20000448FFF75BFD05B05DF804FB9D0B000079
:100C3000781700007C1700008FB52048204D214F09
:100C4000214E00F0D7F9FFF7D1FFFFF7AFFF1F48A4
:100C500000F0D0F945F001051D4C20BF2378002B92
:100C6000FBD00023237005238DF80C300123009363
:100C700003AA18213846FFF7ABFE08B1FFF7AAFB1D
:100C80002378002BFCD00023237032460223182146
:100C90003846FFF7B3FE08B1FFF79CFB2378002B23
:100CA000FCD0727831780B4800F0A4F9C8244FF4D6
:100CB0007A40A847013CFAD1CEE700BF16170000E2
:100CC000701700007C170000480000203317000058
:100CD0004A000020491700004FF08053D3F830013C
:100CE000A0F1080358425841704700004FF080536C
:100CF000D3F83021082A06D1D3F83431052B02D895
:100D0000024AD05C70470020704700BF8E17000079
:100D1000024AD2F80034002BFBD0704700E00140BB
:100D200010B5FFF7D9FF40B14FF080430022C3F860
:100D30000C21C3F81021C3F83825FFF7CDFF002898
:100D400046D04FF08052654BD2F80414C3F82015FA
:100D5000D2F80814C3F82415D2F80C14C3F82815D7
:100D6000D2F81014C3F82C15D2F81414C3F83015A7
:100D7000D2F81814C3F83415D2F81C14C3F840156F
:100D8000D2F82014C3F84415D2F82414C3F8481537
:100D9000D2F82814C3F84C15D2F82C14C3F8501507
:100DA000D2F83014C3F85415D2F83414C3F86015CF
:100DB000D2F83814C3F86415D2F83C14C3F8681597
:100DC000D2F84014C3F86C15D2F84424C3F8702547
:100DD000FFF78CFF18B1424B424AC3F88C26FFF74D
:100DE00085FF18B1404BFB22C3F81825FFF77EFFA3
:100DF00070B14FF080414FF08053D1F8E42ED3F81A
:100E0000583222F00F0203F00F031343C1F8E43EFF
:100E1000FFF76CFF20B1354B4FF40072C3F840264A
:100E2000FFF75AFF48B14FF08043D3F80024D207B0
:100E300044BF6FF00102C3F800242D4AD2F8883075
:100E400043F47003C2F88830BFF34F8FBFF36F8F46
:100E50004FF08053D3F83021082A0ED1D3F8343123
:100E6000052B02D8234AD35C3BB14FF01023D3F8B3
:100E700008224FF08043C3F858254FF01023D3F8D1
:100E80000022002A03DBD3F80432002B22DA1A49AD
:100E900001234FF01020C1F804351224FFF738FF6A
:100EA000C0F80042FFF734FFC0F80442FFF730FFFC
:100EB0000023C1F80435FFF72BFFBFF34F8F0C4918
:100EC0000E4BCA6802F4E0621343CB60BFF34F8F4E
:100ED00000BFFDE70A4B0B4A1A6010BD00C000407E
:100EE000005000404881030000F0004000900240A4
:100EF00000ED00E08817000000E001400400FA0562
:100F0000000000200090D00338B5856804460846EC
:100F100045B122686168531C8B4208BF00208A4299
:100F20000AD2A854E26823682AB161688B4202D2CF
:100F30002146904723680133236038BD70B54D1EAC
:100F400022D413681446C6B20EE0D0542368E26877
:100F50002AB16168994202D9214690472368013D30
:100F600001336A1C23600FD0A26872B1616803F17B
:100F7000010C8C4514BF304600209942E5D8013D54
:100F800063466A1C2360EFD170BD3046DFE700BFC7
:100F9000C3062BD410F4007F70B514BF3026202672
:100FA0004D1E22D413681446F6B20EE0D0542368C6
:100FB000E2682AB16168994202D9214690472368C4
:100FC000013D01336A1C23600FD0A2687AB16168C9
:100FD00003F1010C8C4514BF304600209942E5D83E
:100FE000013D63466A1C2360EFD170BD70473046F7
:100FF000DEE700BF0FB410B588B00AAB0D4A53F856
:10100000041B03936FF000400024CDE90504019117
:10101000079200F053FB039A019904A800F050F8DE
:10102000019000F04DFB019808B0BDE8104004B0FD
:10103000704700BFD1030000027862B169B100EBD4
:10104000010C034601E0634503D013F8011F00299A
:10105000F9D1181A7047104670470846704700BF0C
:1010600000F1010110F0030F11D010F8012B002A3C
:1010700023D010F0030F0AD010F8012B002A1CD047
:1010800010F0030F03D010F8012B002A15D02DE922
:1010900070004FF001324FF0803350F8044BA4EB56
:1010A000020525EA04051D4000D1F6E7A0F1040081
:1010B00070BC10F8012B002AFBD1A0EB0100704797
:1010C0002DE9F04F00230C46036089B014F8011B92
:1010D00003920746002900F0E582DFF8DC9507E07F
:1010E0003846FFF711FF14F8011B002900F0588162
:1010F0002529F5D12246002612F8010B302800F2EE
:101100009E801F280ED9A0F12003102B0AD8DFE8FB
:1011100003F0AC0909A8090909A4090909A0099C57
:1011200009098D002A2840F0FC80039B10781D6877
:101130000433002D0393BCBF6D4246F01006A21C81
:101140002E2800F004810021742800F092807A2873
:1011500000F08F806C2800F032814C2800F035813F
:10116000682800F0BE811446002800F08880A0F1B5
:101170002503DAB2532A00F22B81532B00F2288187
:10118000DFE813F0EB0126012601260126012601E6
:101190002601260126012601260126012601260117
:1011A0002601260126012601260126012601260107
:1011B00026012601260126012601260126012601F7
:1011C00026012601260126012601260126012601E7
:1011D00026012601260126012601260126012601D7
:1011E000260126012601260126018200260126016C
:1011F00026012601260126012601260126012601B7
:10120000D601F6002601260126012601F600260158
:10121000260126012601500248021302260126015A
:10122000ED012601CB0126012601840046F400765B
:101230001446224612F8010B30287FF662AF5E2872
:101240006FD146F480561446F3E746F01006144674
:10125000EFE746F020061446EBE746F40046144656
:10126000E7E746F080061446E3E746F040061446FA
:10127000DFE7144614F8010B00287FF478AF4FF035
:10128000FF3009B0BDE8F08F46F4005616F0800A32
:1012900006D043F2780A43F25803782818BF9A46DA
:1012A00016F4807307BF06F48042B04626F4007837
:1012B00006F48042002A61D1039A18F0040F02F16B
:1012C00004060396126800F0A08092B2002B65D04D
:1012D00028F400785838202800F29D80DFE810F0CC
:1012E00073019B009B009B009B009B009B009B004D
:1012F0009B009B009B009B00D4009B009B009B00DD
:101300009B00D4009B009B009B009B009B0009015D
:1013100073019B009B009B009B00D4009B009B00E3
:101320007301A0F13004E3B2092B4FF000053FF642
:1013300007AF12F8010B05EB850504EB4505A0F19D
:101340003004E3B2092BF4D92E287FF4FCAE1078D8
:101350002A2840F07781039B50781968941C043345
:10136000002903932246FFF6EFAE46F48076EBE6C3
:1013700046F4804806F480734FF0000A039A18F090
:10138000040F02F104060396126830D012B2002A4C
:1013900031DA52424FF02D0A002B99D1012199E701
:1013A0003868BB68002B3FF46CAF7A6882427FF6E6
:1013B00068AF00221A54386809B0BDE8F08F1446AF
:1013C00046F0010614F8010BCEE646F0010614467D
:1013D000B54BD3F80080B8F1000F3FF484AE009114
:1013E00003A901912B4632463946C0477BE618F0E7
:1013F000080FCCD0D2B218F0200F40F03E8118F088
:10140000400F18BF4FF0200A60E718F0080F3FF4B4
:101410005DAFD2B25AE74FF0FF36002321EAE17BFD
:10142000A5EB0B05BAF1FF0FA5EB030540F2048114
:10143000CAF307213846023DFFF766FD5FFA8AF1DD
:101440003846FFF761FD40463A462946FFF7A0FDC2
:101450003A4659463020FFF771FD731C0AD0013619
:101460000DF1140A564416F8011D3846FFF74CFDDD
:10147000B245F8D118F0100F3FF435AE29463A4680
:101480002020FFF75BFD2EE61046002A00F00681C3
:1014900008F4004C624600238C464FF02C0E114697
:1014A00003F0030209B1032A14D01E46A9FB00323F
:1014B000D20802EB820306F1200BA0EB4303EB44BE
:1014C000303309280BF80C3C06F1010340F2D280BE
:1014D0001046E5E703F120026A445E1C02F80CECBA
:1014E000E4E71078682800F0D480541C46F0040625
:1014F0003AE61046002A00F0D1800DF1140C0023CA
:1015000002F007023032C0080CF8012B1E460246DA
:1015100001330028F4D1C91A80E716F4807300F073
:10152000AF8026F4007806F480424FF0000AC1E64E
:10153000039B013D191D93F8008003913A4629460B
:101540003046FFF725FD41463846FFF7DDFCB34640
:101550001BF0100F3FF4C7AD90E72521C0E5039BBA
:10156000524A181D0390D3F800A0BAF1000F08BF2B
:101570009246F205D04626F4007B504640F1858025
:10158000FFF75AFD0646AD1B3A4629465846FFF777
:10159000FFFC002EDCD018F8011B3846FFF7B4FC26
:1015A000AAEB0803F342F6D1D2E7039B1A1D03927C
:1015B00016F0800F1A6846F480780CBF4FF0000ACE
:1015C0004FF0230A08211046002A67D008F4005C77
:1015D000634605AA8C460026A346194609E0344B0B
:1015E000000913F80E3002F8013B06F101030DD09B
:1015F0001E4600F00F0E0029F1D12E4C000914F800
:101600000E3002F8013B06F10103F1D161465C4660
:10161000C91A03E716F0800F0CBF4FF0000A4FF015
:10162000300A3DE6039B3A68191D03911B68310798
:101630004CBF1A701A6056E5BAF1000F3FF403AFC1
:10164000013DFBE6A0F13004E3B2092B02F10102F7
:101650004FF000013FF689AE12F8010B01EB81015A
:1016600004EB4101A0F13004E3B2092BF4D946F4B4
:10167000807669E56146C91AD0E64FF02B0A25E667
:1016800006F48042B0469A4614E6FFF7E9FC0646A7
:1016900079E7507846F00806941C65E513464FF04C
:1016A000FF36BBE608467CE64C000020B41700007D
:1016B000A417000094170000CDCCCCCC704700BF1D
:1016C000704700BF10B501460446172000F00AF825
:1016D00000280CBF20464FF0FF3010BD704700BF00
:1016E000704700BF70B504460D46074EFFF7F6FF82
:1016F000064A356044F0800414601368002BFCD166
:10170000FFF7EEFF306870BD54000020500000204D
:101710000338FDD870470A5457492073656E736FBC
:1017200072206578616D706C652073746172746588
:10173000642E00436F6E666967204D435020636FCF
:101740006D706C657465642E0054656D70657261B2
:1017500074757265203A2025642D25640A00010005
:101760000000000000000000000000000000000079
:101770000338FDD870470000000000000030004032
:101780000000000001000000000000000101010055
:101790000000000030313233343536373839616279
:1017A0006364656630313233343536373839414217
:0C17B00043444546286E756C6C2900000F
:0417BC000090D003C6
:040000030000037581
:00000001FF
